:020000040800F2
:1000000000800020092300087122000873220008E4
:1000100075220008772200087922000800000000FD
:100020000000000000000000000000007B2200082B
:100030007D220008000000007F22000881220008C5
:1000400059230008592300085923000859230008A0
:100050005923000859230008592300085923000890
:100060005923000859230008592300085923000880
:100070005923000859230008592300085923000870
:100080005923000859230008592300089122000829
:100090008522000859230008592300085923000825
:1000A0005923000859230008952200085923000805
:1000B0005923000859230008592300085923000830
:1000C0005923000859230008592300085923000820
:1000D0005923000859230008592300085923000810
:1000E0005923000859230008592300085923000800
:1000F00059230008592300080000000000000000F8
:1001000000000000000000005923000859230008E7
:1001100000000000000000005923000859230008D7
:1001200059230008592300085923000859230008BF
:1001300059230008592300085923000859230008AF
:10014000592300080000000000000000000000002B
:10015000000000000000000000000000000000009F
:100160000000000000000000592300085923000887
:100170005923000800000000592300080000000077
:080180000000000059230008F3
:1001880010B5054C237833B9044B13B10448AFF3C9
:1001980000800123237010BD18000020000000001B
:1001A800B423000808B5034B1BB103490348AFF358
:1001B800008008BD000000001C000020B4230008D7
:1001C800D0400B1CD1409C46203AD34018435242A1
:1001D80063469340184370477047000010B5074BBB
:1001E8004FF0FF3200241A611C61DA60DC609A6209
:1001F8009C62FFF7F1FF204610BD00BF00100240CF
:1002080038B50E4A0E4B054618784FF47A73B3FB8F
:10021800F0F31068B0FBF3F000F0BCFB044658B9EB
:100228000F2D09D8024629464FF0FF3000F072FB27
:10023800044B20461D6038BD012038BD1000002049
:100248000000002004000020074A08B5136843F0A6
:1002580010031360032000F04BFB0020FFF7D0FFD2
:1002680001F076FF002008BD00200240034A044B3D
:1002780011681B780B441360704700BF50000020C2
:1002880000000020014B1868704700BF5000002094
:1002980038B5044600286ED090F820300BB901F02C
:1002A8006FFF2268136823F002031360FFF7EAFF69
:1002B800054623685A68910751D41A6842F001022A
:1002C8001A60FFF7DFFF054623685A68D20754D53E
:1002D800227E012A1A680CBF42F0800222F08002B6
:1002E8001A60627E012A1A680CBF42F0400222F0AE
:1002F80040021A60A27E012A1A680CBF42F020024E
:1003080022F020021A60E27E012A1A680CBF22F04D
:10031800100242F010021A60227F012A1A680CBFEC
:1003280042F0080222F008021A60627F012A1A6865
:100338000CBF42F0040222F004021A60E168A268CD
:100348000A4321690A4361690A43616801390A431A
:10035800DA6100200123606284F8203038BDFFF79D
:1003680091FF401B0A28A4D9636A43F400336362EF
:10037800052384F82030012038BDFFF783FF401B98
:100388000A28A1D9F0E790F82030013B012B70B57D
:100398005FD803684869D3F8002242F00102C3F825
:1003A8000022012400F01F02D3F81C5204FA02F2C2
:1003B800D4432540C3F81C52CD6985BBD3F80C52F1
:1003C800CE682540C3F80C528D8803EBC00045EA7F
:1003D8000645C0F840528E680D8845EA0645C0F8C3
:1003E8004452886968BBD3F804022040C3F8040269
:1003F800086950BBD3F814022040C3F81402096AF4
:10040800012902BFD3F81C120A43C3F81C22D3F8EF
:10041800002222F00102C3F80022002070BD012D45
:10042800DFD1D3F80C520E681543C3F80C528D88EF
:1004380003EBC00045EA0645C0F840528E688D8936
:10044800CBE7D3F804021043D0E7D3F814021043E3
:10045800D3E7436A43F480234362012070BD38B573
:1004680090F82030012B04461FD10268022380F83F
:100478002030136823F001031360FFF703FF0546DC
:100488002368586810F0010001D1606238BDFFF799
:10049800F9FE401B0A28F3D9636A43F40033636208
:1004A800052384F82030012038BD436A43F4002333
:1004B8004362F8E7F0B590F820500668013D012D39
:1004C800B46840D814F0E05F39D0C4F30164032C59
:1004D8004FF0010505D1436A43F40003436201204C
:1004E800F0BDA5401D608868CF6804F1180308BBFB
:1004F800086847EA40501B012401F0503319086985
:10050800097DC3F88401012902BFD3F8841141F49D
:100518008071C3F8841134445168C4F88C1112688E
:10052800C4F88821D3F8802142F00102C3F8802161
:100538000020F0BD4D68384340EAC500DBE7436A58
:1005480043F40013CAE7436A43F48023C6E790F8EC
:100558002030013B012B17D8CA0741BF02689368B6
:1005680043F0800393608B0741BF0268936843F4AC
:100578000043936011F004011FBF0268936843F4BD
:100588000003936000207047436A43F4802343626A
:1005980001207047F0B590F82040013C012C6BD841
:1005A800066841B9F468A40707D1436A43F4001305
:1005B80043620120F0BD3469F5E70C013519D5F81F
:1005C800B07107F004079760002F4BD1D5F8B071D0
:1005D8007F0D1760D5F8B071C7F34007D760D5F81D
:1005E800B47107F00F071761D5F8B471D5F8B45195
:1005F8002644C7F307272D0C97615561D6F8B82113
:100608001A7002682244D2F8B821120A5A70026895
:100618002244D2F8B821120C9A7002682244D2F807
:10062800B821120EDA7002682244D2F8BC211A717D
:1006380002682244D2F8BC21120A5A710268224484
:10064800D2F8BC21120C9A7102681444D4F8BC2167
:10065800120EDA71036851B9DA6842F02002DA60E2
:100668000020F0BDD5F8B071FF085760B2E71A69ED
:1006780042F020021A61F3E7436A43F4802397E7C4
:1006880090F82030013B012B05D8026853691943C3
:10069800516100207047436A43F48023436201207C
:1006A800704790F82030013B012B06D80268536947
:1006B80023EA0101516100207047436A43F4802313
:1006C8004362012070477047704770477047704712
:1006D8007047704770472DE9F84F03685E69D3F893
:1006E80004909F68D3F80CB0D3F810A0D3F8188002
:1006F80016F00104054622D017F0010407D00122A4
:10070800B9079A6040F1A38001F047FA0024FB057D
:1007180009D52B684FF48072B8059A6040F1A5801E
:10072800284601F03BFAFB0309D52B684FF48032C9
:10073800B8039A6040F1A780284601F030FA3307E1
:1007480007D51BF0100F1FBF2B68102244F400744C
:10075800DA60770708D51BF0080F05D02B68082248
:10076800DA602846FFF7B2FFB00706D52B68DB68CA
:10077800990702D0284601F01FFC720607D51AF027
:10078800100F1FBF2B68102244F480641A61B3064F
:1007980008D51AF0080F05D02B6808221A612846D8
:1007A800FFF796FFF70606D52B681B69980702D056
:1007B8002846FFF78CFFB10308D519F0100F05D0B4
:1007C8002B6810225A602846FFF783FFF20308D5EA
:1007D80019F0080F05D02B6808225A602846FFF741
:1007E80079FF33042AD519F0040F2A6824D0F705B5
:1007F80004D518F0010F18BF44F00104B00504D562
:1008080018F0020F18BF44F00204710504D518F05F
:10081800040F18BF44F0040433050DD518F0700315
:100828000AD0302B4CD03CD8102B43D0202B44D0AE
:10083800936923F070039361042353602CB16B6AAE
:100848001C436C62284601F075F9BDE8F88F7A07F9
:1008580005D417F0080405D1FFF735FF57E74FF423
:10086800006454E74FF4805451E7790502D544F405
:10087800005458E73A0502D544F4804453E7284623
:10088800FFF722FF4FE7790302D544F4004456E707
:100898003A0302D544F4803451E72846FFF715FFA0
:1008A8004DE7502B0FD0602B10D0402BC0D144F017
:1008B8004004BDE744F00804BAE744F01004B7E781
:1008C80044F02004B4E744F08004B1E744F48074B1
:1008D800AEE790F82030013B012B8BBF436A002321
:1008E80043F4802343628ABF43621846012070475D
:1008F800074AD36823F4E0631B041B0C43F0BF636F
:10090800000243F4003300F4E0600343D36070470F
:1009180000ED00E0174B30B5DC68C4F30224C4F1E5
:100928000703251D042B28BF0423062D4FF00105BE
:1009380005FA03F303F1FF338CBF033C002419408D
:10094800A14005FA04F4013C2240002842EA0102D1
:100958004FEA0212AFBF00F1604000F00F00064BF3
:10096800D2B2A5BF00F56140D2B21A5480F8002374
:1009780030BD00BF00ED00E014ED00E042090123A6
:1009880000F01F0003FA00F0014B43F82200704703
:1009980000E100E00138B0F1807F0AD2064B074A37
:1009A8005860F02182F823100020072298601A600E
:1009B80070470120704700BF10E000E000ED00E044
:1009C800F0B596080B4601EB8607BB4205680AD1CD
:1009D80012F0030204D0012A11F8261014D129704C
:1009E80003681868F0BD5C7893F800E0240444EAD2
:1009F8000E6493F803E044EA0E0493F802E044EA34
:100A08000E242C600433E0E7022A5A7842EA0122D5
:100A18002A801CBF9B782B70E2E7F0B500235708AB
:100A28000C46BB4204F10404056806D1D20744BF52
:100A380031F823302B802868F0BD34F804EC34F802
:100A4800026C46EA0E462E600133EAE710B504460A
:100A580008B9012010BD437F03F0FF0213B90277E4
:100A680001F0D0FB022363772379E3B92368134AA3
:100A78005A619A6822F018029A6062792368D2B99A
:100A88004FF0FF321A619A68616922F060020A43E6
:100A98009A609A68A16922F080020A439A60012349
:100AA8006377002010BDE268A168204600F036F8A0
:100AB8000028E2D0CDE72269E4E700BFB71DC104F2
:100AC800F8B5037F012B04464FF0020324D0437787
:100AD8000368012707779F6847F001079F60076A47
:100AE800022F14D0032F04D0012F13D1FFF768FF72
:100AF80004E001EB8206B14205D11868012363774F
:100B080000232377F8BD51F8042B1A60F3E7FFF7A9
:100B180084FFF3E70020F1E71846F8BD30B51F233E
:100B2800012404FA03F50D420AD113F1FF33F8D278
:100B3800102A03D0182A01D0082A0BD1012030BD71
:100B4800102A10D0182A03D0082A03D10F2B00E04E
:100B5800062BF3D800684161836823F018031A4311
:100B68008260002030BD072BF3E700000B4AD368F2
:100B780013F0100305D00A49CB6943F00203CB6197
:100B88001023D268520706D50549CA6942F0010206
:100B9800CA6143F00403014AD36070470020024051
:100BA80058000020064B186910F0800007D0054A4D
:100BB8005A6002F188325A601869C0F3C010704751
:100BC8000020024023016745034A136943F080036C
:100BD80013610020704700BF00200240F8B50546A9
:100BE800FFF750FB104C07462646E368D9070FD499
:100BF800E3689A0644BF2023E360F368DB0603D466
:100C0800F06810F0040002D0FFF7B0FF0120F8BD33
:100C1800681CEAD00DB90320F8BDFFF733FBC01BF1
:100C28008542E2D2F7E700BF002002402DE9F84FE5
:100C38001F4C9946237E012B05460F46904633D01C
:100C480001234CF250302376FFF7C8FF40BB012D3B
:100C580003D0022D0CBF022504250026DFF854B06E
:100C6800B246320140464946FFF7AAFAC4F81CA02A
:100C7800DBF8103080B243F00103CBF8103027F8CE
:100C880016004CF25030FFF7A9FFDBF8103023F0C4
:100C98000103CBF8103018B90136F3B29D42E0D801
:100CA80000232376BDE8F88F0220BDE8F88F00BF47
:100CB8005800002000200240064B0022DA61064B53
:100CC8001A6942F004021A611A6942F040021A6174
:100CD800704700BF5800002000200240064B002249
:100CE800DA61064B1A6942F002021A6158611A6900
:100CF80042F040021A61704758000020002002406C
:100D08002DE9F041234D2B7E012B074688463DD027
:100D180003680124A3422C764CF2503013D1FFF71C
:100D28005DFF20B1012000232B76BDE8F081FFF79D
:100D3800C3FF4CF25030FFF751FF174A136923F0F5
:100D480004031361EFE7FFF749FF0028EAD14FF0EA
:100D5800FF33C8F8003020467E680F4CBA687B68BD
:100D680003EBC2239E42DED23046FFF7B7FF4CF2B8
:100D78005030FFF733FF236923F00203236110B1DA
:100D8800C8F80060CFE706F50066E7E70220BDE88F
:100D9800F08100BF58000020002002402DE9F74FE5
:100DA800D1F80080DFF874915A4A002338FA03F426
:100DB80002D103B0BDE8F08F012404FA03FA18EA5F
:100DC8000A0500F09C804C6824F0100BBBF1020F60
:100DD80014D14FEAD30E00EB8E0E03F0070CDEF8A9
:100DE80020604FEA8C0C0F2707FA0CF726EA070752
:100DF8000E6906FA0CF63E43CEF820604FEA430C23
:100E08000327066807FA0CF7FF4304F0030E3E4079
:100E18000EFA0CFE0BF1FF3B4EEA0606BBF1010F82
:100E2800066011D8866806EA070BCE6806FA0CFE3B
:100E38004EEA0B068660466826EA0A0AC4F30016DC
:100E48009E4046EA0A064660C66837408E6806FA3B
:100E58000CF63743E600C76051D5D9F8186046F05C
:100E68000106C9F81860D9F8186023F0030707F1DC
:100E7800804706F0010607F58037019603F0030C5A
:100E8800019EBE684FEA8C0C4FF00F0E0EFA0CFE56
:100E9800B0F1904F26EA0E0E33D01F4EB04232D03A
:100EA80006F58066B04230D006F58066B0422ED096
:100EB80006F58066B04214BF0526042606FA0CF62D
:100EC80046EA0E06BE601668EF4314F4803F0CBF76
:100ED8003E402E431660566814F4003F0CBF3E4057
:100EE8002E435660966814F4801F0CBF3E402E4374
:100EF8009660D668A40254BF3E402E43D6600133A4
:100F080054E70026DAE70126D8E70226D6E70326C3
:100F1800D4E700BF0004014000040048001002406C
:100F28000AB18161704781627047000070B5304C2A
:100F3800236843F001032360FFF7A4F905462368FB
:100F48009B073FD5236823F0F80343F08003236011
:100F58006268284B13406360FFF794F941F28836C2
:100F68000546606810F00C0034D1234B234A1A6000
:100F7800FFF746F90546002838D1236823F0847323
:100F880023F480332360236823F480232360FFF74E
:100F980079F90646236813F0007321D16360E36290
:100FA8002363A26842F41F02A260A3604FF080721C
:100FB80092FAA2F2124BB2FA82F213449B00012277
:100FC8001A6005E0FFF75EF9401B0228B7D9032530
:100FD800284670BDFFF756F9401BB042C1D9F6E765
:100FE800FFF750F9801B0228D4D9F0E70125EFE775
:100FF800001002400CC0FFF81000002000127A0018
:10100800208190102DE9F347054618B9012002B058
:10101800BDE8F0870368DA0711D42B689B0700F155
:1010280085802B681C0700F1F6802B68580700F1B3
:101038003F81EA69002A40F0D6810020E7E7BA4CF0
:10104800636803F00C03042B07D0636803F00C03F8
:10105800082B16D16368DF0313D54FF4003393FAD6
:10106800A3F2216893FAA3F3B3FA83F303F01F03FF
:10107800012202FA03F30B42CFD06B68002BCCD1CC
:10108800C4E76A68B2F5803F25D1236843F480330A
:101098002360E36AA96823F00F030B43E36252B3AA
:1010A800FFF7F0F84FF400368046012796FAA6F3CA
:1010B800226896FAA6F3B3FA83F303F01F0307FA3C
:1010C80003F31342A9D1FFF7DDF8A0EB0800642869
:1010D800ECD903209BE7236832B923F480332360DB
:1010E800236823F48023D3E7B2F5A02FF5D143F486
:1010F80080232360C9E7FFF7C5F84FF40036804620
:10110800012796FAA6F3226896FAA6F3B3FA83F3B0
:1011180003F01F0307FA03F313423FF47EAFFFF710
:10112800B1F8A0EB08006428EBD9D2E77E4C6368DD
:1011380013F00C0F07D0636803F00C03082B22D1BF
:101148006368DE031FD4022393FAA3F2216893FA9B
:10115800A3F3B3FA83F303F01F03012202FA03F3A4
:101168000B4203D02B6993427FF450AF2168F823D8
:1011780093FAA3F3B3FA83F26B69934021F0F80270
:10118800134323604DE72A6901260AB396FAA6F3AA
:10119800B3FA83F303F1845303F584139B00022706
:1011A8001E60FFF76FF8804697FAA7F3226897FA50
:1011B800A7F3B3FA83F303F01F0306FA03F313420A
:1011C800D4D1FFF75FF8A0EB08000228ECD980E73C
:1011D80096FAA6F3B3FA83F303F1845303F5841361
:1011E8009B0002271A60FFF74DF8804697FAA7F38D
:1011F800226897FAA7F3B3FA83F303F01F0306FAFA
:1012080003F313423FF40DAFFFF73CF8A0EB0800DF
:101218000228EBD95DE7AA69434E444901241AB371
:1012280094FAA4F3B3FA83F30B449B0002271C60DF
:10123800FFF728F8804697FAA7F397FAA7F397FAE3
:10124800A7F3726A97FAA7F3B3FA83F303F01F03BD
:1012580004FA03F313427FF4E8AEFFF713F8A0EBA8
:1012680008000228E7D934E794FAA4F3B3FA83F321
:101278000B449B0002271A60FFF704F8804697FA90
:10128800A7F397FAA7F397FAA7F3726A97FAA7F35F
:10129800B3FA83F303F01F0304FA03F313423FF492
:1012A800C4AEFEF7EFFFA0EB08000228E7D910E76D
:1012B8001D4CE369D90034D4E36943F08053E361FA
:1012C800E36903F080530193019B0126184F3B68A3
:1012D800DA052FD5EB68012B3DD1236A43F00103D2
:1012E8002362FEF7CFFF02278246B9464FF0010876
:1012F80097FAA7F397FAA7F3002B6CD0226A99FA0A
:10130800A9F3B3FA83F303F01F0308FA03F31342B4
:1013180058D0002E3FF48DAEE36923F08053E3618B
:1013280087E60026D2E700BF001002402081901017
:10133800007000403B6843F480733B60FEF7A2FFF7
:1013480080463B68DB05C5D4FEF79CFFA0EB080090
:101358006428F6D9BDE63BBB236A23F00103236268
:10136800236A23F004032362FEF78CFF02278246D8
:10137800B9464FF0010897FAA7F397FAA7F373B3A2
:10138800226A99FAA9F3B3FA83F303F01F0308FA60
:1013980003F31342BDD0FEF775FF41F28833A0EB8B
:1013A8000A009842E7D994E6052B236A03D143F053
:1013B8000403236291E723F001032362236A23F0E5
:1013C80004038DE7FEF75EFF41F28833A0EB0A00C5
:1013D80098428DD97DE697FAA7F3626A8FE797FA64
:1013E800A7F3626ACDE7414C636803F00C03082B4E
:1013F8003FF40CAE022A4FF0807352D193FAA3F354
:10140800B3FA83F303F1845303F584139B0000229A
:101418001A60FEF737FF4FF000778046012697FAEB
:10142800A7F3226897FAA7F3B3FA83F303F01F032D
:1014380006FA03F313422DD162686B6A296A22F413
:1014480074120B43134363604FF0807393FAA3F352
:10145800B3FA83F303F1845303F584139B004FF02D
:1014680000751E60FEF70EFF0126074695FAA5F3E4
:10147800226895FAA5F3B3FA83F303F01F0306FA7B
:1014880003F313427FF4D9ADFEF7FCFEC01B02281C
:10149800ECD91EE6FEF7F6FEA0EB08000228BED93E
:1014A80017E693FAA3F3B3FA83F303F1845303F52E
:1014B80084139B0000221A60FEF7E4FE4FF00075CB
:1014C8000746012695FAA5F3226895FAA5F3B3FA1B
:1014D80083F303F01F0306FA03F313423FF4ADADA1
:1014E800FEF7D0FEC01B0228ECD9F2E5001002403E
:1014F80010B5134C616801F00C03082B1ED14FF492
:10150800701393FAA3F301F47012B3FA83F322FA77
:1015180003F30C4AD05CE36A0F2292FAA2F2B2FA01
:1015280082F203F00F03D340074AD25CCB034ABFD1
:10153800064B074BB3FBF2F3584310BD034810BDED
:1015480000100240CC230008DC23000800127A00B7
:1015580000093D002DE9F0410D46044610B901206F
:10156800BDE8F0814C4A136803F007038B422ED381
:101578002268910736D4D2073CD4474A136803F04F
:1015880007039D4275D32268444D12F0040F7CD1A5
:10159800130706D56B68226923F4605343EAC20334
:1015A8006B60FFF7A5FF6B68F02292FAA2F2B2FA1D
:1015B80082F203F0F003D340394AD35CD840394B68
:1015C80018600020FEF71CFE0020BDE8F0811368BB
:1015D80023F007030B431360136803F007039942D2
:1015E800BDD1C5E72D49A0684B6823F0F00303433C
:1015F8004B60C0E76268294E012A27D14FF40033B7
:1016080093FAA3F1316893FAA3F3B3FA83F303F0DF
:101618001F0302FA03F30B42A1D0736823F00303FC
:101628001A437260FEF72EFE41F288380746736847
:10163800626803F00C03B3EB820F9ED0FEF722FE24
:10164800C01B4045F3D90320BDE8F081022A0CBF36
:101658004FF00073022393FAA3F1306893FAA3F3CF
:10166800B3FA83F303F01F03012101FA03F30342E2
:10167800D2E7136823F007032B431360136803F0C2
:1016880007039D427FF46BAF7DE76B68E16823F445
:10169800E0630B436B607BE70020024000100240D0
:1016A800EC230008100000200368DA6842F0010209
:1016B800DA601A6842F001021A6000207047036875
:1016C800DA6822F00102DA60196A41F21112114255
:1016D80008D1196A40F24442114202BF1A6822F046
:1016E80001021A60002070477047704770477047C2
:1016F80003681A69910710B504460ED5DA6892078F
:101708000BD56FF002021A619B6901229B070277D1
:1017180077D0FFF7EAFF0023237723681A69500779
:1017280010D5DA6851070DD56FF004021A619B696C
:10173800022213F4407F2277204668D0FFF7D5FFB6
:101748000023237723681A6912070FD5DA68100770
:101758000CD56FF008021A61DB6904229907227719
:1017680020465AD0FFF7C1FF0023237723681A6960
:10177800D20610D5DA68D0060DD56FF010021A61BE
:10178800DB69082213F4407F227720464BD0FFF70D
:10179800ACFF0023237723681A69D10708D5DA68D4
:1017A800D20705D56FF001021A61204600F07AF9D8
:1017B80023681A69100608D5DA68110605D56FF08E
:1017C80080021A61204600F0B4F823681A695206AC
:1017D80008D5DA68500605D56FF040021A61204630
:1017E800FFF785FF23681A69910622D5DA68920601
:1017F8001FD56FF0200220461A61BDE8104000F0A6
:1018080097B8FFF771FF2046FFF770FF83E7FFF7F0
:101818006BFF2046FFF76AFF92E7FFF765FF204658
:10182800FFF764FFA0E7FFF75FFF2046FFF75EFFC3
:10183800AFE710BDB0F1804F03680ED02C4A90423C
:101848000BD002F58062904207D002F58062904288
:1018580003D002F5A832904212D14A6823F07003EF
:10186800B0F1804F43EA020325D0214A904222D0AA
:1018780002F5806290421ED002F5806290421AD032
:101888001C4A904217D002F58062904213D002F5AC
:10189800806290420FD002F5903290420BD002F550
:1018A8008062904207D002F58062904203D002F530
:1018B800A052904203D1CA6823F4407313434A6983
:1018C80023F08003134303608B68C3620B68836251
:1018D800094B984207D003F58063984203D003F57B
:1018E8008063984201D10B69036301234361704708
:1018F80000040040001800400040014010B50446B4
:10190800A0B190F83D3003F0FF021BB980F83C20ED
:1019180000F08CFC022384F83D302068211DFFF77D
:1019280089FF012384F83D30002010BD012010BD3F
:10193800704770471FB500240094FFF733F97023F0
:1019480003936946074B029301A80194FFF7D8F95E
:101958000446FFF739F9002C14BF0420002004B016
:1019680010BD00BF00800008024B034A1A60FFF751
:1019780019B900BF080000200080000870B5104C9D
:10198800104A0E46216801F17843A3F500439342BB
:10199800054603D9FFF718F9052070BD0246002354
:1019A8000220FFF743F90028F4D1226813689D420A
:1019B800F0D1131D2360044B1344336070BD00BF86
:1019C80008000020FC6F03000480FFF7FFF7FCB855
:1019D8004FF400424FF000610148FFF771B800BFB3
:1019E800780000204FF45C3201490248FFF768B8DC
:1019F8000080000878000020034B186803F1C053EA
:101A0800C01A18BF0120704700800008B0B50B4B02
:101A180000AF1C68FFF78AFAFEF7E0FB084B0022CC
:101A28001A605A609A60074A074B93601B6883F3F1
:101A380008882346BD46BDE8B04018470480000822
:101A480010E000E000ED00E00080000810B590B064
:101A58002822002106A800F0A1FC1422002101A8D8
:101A680000F09CFC01230A93102302240B9306A880
:101A78004FF4601306940D940F93FFF7C3FA00B167
:101A8800FEE70F23019303904FF4806305902146EE
:101A980001A802940493FFF75DFD00B1FEE710B0C2
:101AA80010BD00001A4B834231D11A4A13684FF413
:101AB800FA7101331360B3FBF1F201FB123313B96E
:101AC800154B01221A70154B1A88013292B2B2F5E1
:101AD8007A7F28BF00221A8019886422B1FBF2F3AA
:101AE80002FB13139BB293B90D4A12787AB10D49D0
:101AF8000D48CB604FF602724A60042201238A60C7
:101B08000A4A0B61FF231370094BFEF7D3BC7047D9
:101B18009C00002040000020350000204E000020DE
:101B28003C00002018010020DC00002004010020F7
:101B38000C01002038B5436A1D05044603D4456AE4
:101B480015F4805504D001212046FEF700FD01253B
:101B5800636A980402D4636A590404D502212046B2
:101B6800FEF7F5FC0125636A1A0402D4636ADB03F5
:101B780004D504212046FEF7EAFC01252046FEF79D
:101B8800A8FE4DB129462046FEF78BFD2946204682
:101B9800BDE83840FEF774BD38BD704770477047E0
:101BA80000B5DFF834C08BB007200C214FF0FC0ED5
:101BB800002301228DE803506946064806930792E0
:101BC800049308920593FEF7DEFB00B1FEE70BB025
:101BD8005DF804FBDC000020F8FF07002DE9F04168
:101BE8008AB0FEF731FBFFF731FF142200210DEB1D
:101BF800020000F0D3FBB04BB04D5A6942F40032FA
:101C08005A615A6902F400320192019A5A6942F4FF
:101C180000225A615A6902F400220292029A5A6911
:101C280042F480125A615A6902F480120392039AAC
:101C38005A6942F480225A615B6903F48023049351
:101C480000224FF400414FF09040049BFFF768F9E1
:101C580000224FF440619A48FFF762F900244FF4DC
:101C68000043012605A94FF0904005930696079476
:101C78000894FFF793F84FF440639148059305A93A
:101C8800069607940894FFF789F88E4BAC6085E8B0
:101C980048004FF4FA43EB604FF480732B612846F9
:101CA80080236C61AB61FFF729FE00B1FEE7864C2B
:101CB800864AA060042384E80C004FF40023E06007
:101CC800236120764FF4A003A076E0762077607732
:101CD800204663616676FEF7DBFA00B1FEE77C4BCF
:101CE8007C4A187158715861986118461A601E62CA
:101CF800FEF7ACFE00B1FEE7FFF752FF2046FEF705
:101D0800AEFB02212046FEF7BBFC2846FFF7CCFCC1
:101D1800FFF772FE704D714F714E012808BF287091
:101D28002B78002B00F018813378B3B1FFF702FE4F
:101D38006C496D4A04234FF602644C608B6000289E
:101D480040F0E68001230B61C860F02313705E4801
:101D5800664BFEF7AFFB00233370654B1B780BB166
:101D6800FFF754FE634C2378EBB1FFF73BFE5D4968
:101D78005D4A4FF602634B6004238B6005230B61B9
:101D8800F4231370030E5370030C9370030A4FF07F
:101D98000008D3701071554B4B48C1F80C80FEF702
:101DA80089FB84F80080544C2378EBB1FFF710FED0
:101DB8004C494D4A4FF602634B6004238B60052360
:101DC8000B610F231370030E5370030C9370030AF7
:101DD8004FF00008D3701071444B3B48C1F80C8099
:101DE800FEF768FB84F80080444C2378DBB1FFF7EA
:101DF800BBFD434B3B49344801221A704FF602633E
:101E08004B600423384A8B6002230B61F52313705F
:101E1800FF234FF000085370344BC1F80C80FEF7D5
:101E280049FB84F80080374C2378E3B1DFF8D08091
:101E380098F80030BBB1FFF7C9FD2A4922484FF690
:101E4800026200234A60042288F8003023708A6006
:101E5800CB60254A02230B61F7231370FF235370CD
:101E6800224BFEF727FBDFF8A48098F80030002B00
:101E78003FF456AF244C2278022A4FD0032A56D07A
:101E8800012A14D14FF400414FF09040FFF748F871
:101E980000224FF480610A48FFF742F800224FF40D
:101EA80000610748FFF73CF82378013323700023CB
:101EB80088F8003034E700BF001002409C00002082
:101EC8000008004800480140DC0000200064004091
:101ED80078000020003002403C0000204000002034
:101EE8003700002018010020040100200C01002008
:101EF8004600002045000020440000204700002044
:101F080034000020360000200C000020350000209E
:101F18000023CB6001230B61FF2317E700224FF456
:101F280000414FF09040FEF7FBFF0122B1E700228D
:101F38004FF400414FF09040FEF7F2FF00224FF4BB
:101F480080610948FEF7ECFF01224FF40061064862
:101F5800FEF7E6FF0123A9E73B68322B7FF6E0AEE8
:101F6800FFF754FDDCE600BF000800480D490E4BA2
:101F78004FF6026210B41B684A6004228A600A6144
:101F88000A4A9B0800249370CC60C3F30723F62405
:101F98005070D3701470064B06485DF8044BFEF77A
:101FA80089BA00BF18010020380000200401002071
:101FB8000C010020DC00002070B58AB001AB03AA38
:101FC8000021FEF7E7FA049A4FF601739A4231D1DD
:101FD800059B042B2ED19DF80430F02B2CD14C4BB3
:101FE80001221A709DF80400F32819D1484B1B7878
:101FF800012B15D1474905220A61474A4FF602636A
:102008004B601070042303208B60907000237020B5
:10201800CB605370D07013714048414BFEF74AFAB9
:102028009DF80430F42B1DD1394B1B78012B01D1BD
:102038003C4A13700AB070BDF12B06D1344B1B78A3
:10204800012BEDD1384A1370CCE7F22BCAD1304BB3
:102058001C78012CE4D1FFF7CFFC0028C2D1334B08
:102068001C70BFE7F52B12D1294B1B78012BE1D14E
:102078002F4A002111602F4A13709DF80430F72B66
:102088003ED1234B1B78012BD4D12B4AD1E7F62B19
:10209800F3D11F4B1B78012BCCD1079A042AC9D93D
:1020A800264C274D23700221DDF805301B482B6094
:1020B800FEF7F7FA2348FFF702FB1D49BDF8092090
:1020C8000B68B3EB820F264603D12868FFF756FC4E
:1020D80060B90023FF203370FFF748FF1948FFF766
:1020E800E3FA02210D48FEF7CBFAC6E700200025E7
:1020F800FFF73CFF2570FFF769FC134B1D70EDE7F8
:102108000F2B97D1024B1B78012B93D10F4A90E7E5
:102118003C0000201801002004010020DC00002001
:102128000C01002045000020370000204600002058
:102138003800002047000020360000204C00002016
:10214800480000209C0000203400002044000020AB
:102158000A4B9A6942F001029A619A6982B002F0C8
:1021680001020092009ADA6942F08052DA61DB6972
:1021780003F080530193019B02B0704700100240A6
:1021880010B5044688B01422002103A800F006F90F
:1021980022681A4B9A422ED103F5D63303A9DA697D
:1021A800174842F00072DA61DA6902F000720192AF
:1021B800019A5A6942F480125A615B6903F48013E8
:1021C8000293029B03230222039306930723079398
:1021D8000492FEF7E3FD002211461320FEF79AFB56
:1021E8001320FEF7CBFB002214201146FEF792FBCA
:1021F8001420FEF7C3FB08B010BD00BF0064004008
:10220800000C00480268084B9A4282B00AD1A3F534
:1022180000535A6942F040025A615B6903F0400377
:102228000193019B02B070470030024007B50D4B87
:1022380002689A4212D103F548431A209A6942F477
:1022480080229A619B69002203F48023019311463E
:10225800019BFEF75FFB1A20FEF790FB03B05DF8C9
:1022680004FB00BF004801407047FEE7FEE7FEE7B9
:10227800FEE7704770477047FDF7F8BF0148FEF763
:102288002ABA00BFDC000020FFF7F8BF0148FFF7BB
:102298002FBA00BF9C0000201549D1F8883043F4BC
:1022A8007003C1F88830134B1A6842F001021A60B3
:1022B8005868114A02405A601A6822F0847222F45F
:1022C80080321A601A6822F480221A605A6822F44E
:1022D800FE025A60DA6A22F00F02DA62186B074AC5
:1022E80002401A6300229A604FF000638B607047C7
:1022F80000ED00E0001002400CC07FF8CCFC00FFAD
:10230800DFF834D0002103E00C4B5B584350043114
:102318000B480C4B42189A42F6D30B4A02E00023B2
:1023280042F8043B094B9A42F9D3FFF7B5FF00F096
:1023380011F8FFF753FCFEE7008000200424000892
:102348000000002014000020180000204C0100208C
:10235800FEE7000070B50D4E0D4CA41BA41000251F
:10236800A54209D10B4E0C4C00F020F8A41BA41078
:102378000025A54205D170BD56F82530984701358E
:10238800EEE756F8253098470135F2E7FC230008B8
:10239800FC230008FC23000800240008024403462C
:1023A800934200D1704703F8011BF9E7F8B500BF65
:1023B800F8BC08BC9E467047F8B500BFF8BC08BC1E
:0423C8009E46704776
:1023CC0002030405060708090A0B0C0D0E0F10106A
:1023DC000102030405060708090A0B0C0D0E0F1069
:1023EC0000000000000000000102030406070809B9
:0423FC00AD01000827
:042400008901000846
:10240400010000001000000000800008010000002E
:0424140000127A0038
:0400000508002309C3
:00000001FF
