:020000040800F2
:1080000000800020BD9B0008219B0008239B0008E6
:10801000259B0008279B0008299B00080000000002
:108020000000000000000000000000002B9B000882
:108030002D9B0008000000002F9B0008319B0008CA
:108040000D9C00080D9C00080D9C00080D9C00086C
:108050000D9C00080D9C00080D9C00080D9C00085C
:108060000D9C00080D9C00080D9C00080D9C00084C
:108070000D9C00080D9C00080D9C00080D9C00083C
:108080000D9C00080D9C00080D9C0008419B0008F9
:10809000359B00080D9C00080D9C00080D9C0008F5
:1080A0000D9C00080D9C0008459B00080D9C0008D5
:1080B0000D9C00080D9C00080D9C00080D9C0008FC
:1080C0000D9C00080D9C00080D9C00080D9C0008EC
:1080D0000D9C00080D9C00080D9C00080D9C0008DC
:1080E0000D9C00080D9C00080D9C00080D9C0008CC
:1080F0000D9C00080D9C000800000000000000001E
:1081000000000000000000000D9C00080D9C00080D
:1081100000000000000000000D9C00080D9C0008FD
:108120000D9C00080D9C00080D9C00080D9C00088B
:108130000D9C00080D9C00080D9C00080D9C00087B
:108140000D9C00080000000000000000000000007E
:10815000000000000000000000000000000000001F
:1081600000000000000000000D9C00080D9C0008AD
:108170000D9C0008000000000D9C0008000000009D
:08818000000000000D9C000846
:0A818800415050000000000000000C
:1081940010B5054C237833B9044B13B10448AFF33D
:1081A40000800123237010BD100000200000000097
:1081B400689C000808B5034B1BB103490348AFF39F
:1081C400008008BD0000000014000020689C000826
:1081D40038B50E4A0E4B054618784FF47A73B3FB44
:1081E400F0F31068B0FBF3F000F0BCFB044658B9A0
:1081F4000F2D09D8024629464FF0FF3000F072FBDC
:10820400044B20461D6038BD012038BD0C00002001
:108214000000002004000020074A08B5136843F05A
:1082240010031360032000F04BFB0020FFF7D0FF86
:1082340001F0FCFB002008BD00200240034A044B6F
:1082440011681B780B441360704700BF380000208E
:1082540000000020014B1868704700BF3800002060
:1082640038B5044600286ED090F820300BB901F0E0
:10827400F5FB2268136823F002031360FFF7EAFF9B
:10828400054623685A68910751D41A6842F00102DE
:108294001A60FFF7DFFF054623685A68D20754D5F2
:1082A400227E012A1A680CBF42F0800222F080026A
:1082B4001A60627E012A1A680CBF42F0400222F062
:1082C40040021A60A27E012A1A680CBF42F0200202
:1082D40022F020021A60E27E012A1A680CBF22F002
:1082E400100242F010021A60227F012A1A680CBFA1
:1082F40042F0080222F008021A60627F012A1A681A
:108304000CBF42F0040222F004021A60E168A26881
:108314000A4321690A4361690A43616801390A43CE
:10832400DA6100200123606284F8203038BDFFF751
:1083340091FF401B0A28A4D9636A43F400336362A3
:10834400052384F82030012038BDFFF783FF401B4C
:108354000A28A1D9F0E790F82030013B012B70B531
:108364005FD803684869D3F8002242F00102C3F8D9
:108374000022012400F01F02D3F81C5204FA02F276
:10838400D4432540C3F81C52CD6985BBD3F80C52A5
:10839400CE682540C3F80C528D8803EBC00045EA33
:1083A4000645C0F840528E680D8845EA0645C0F877
:1083B4004452886968BBD3F804022040C3F804021D
:1083C400086950BBD3F814022040C3F81402096AA8
:1083D400012902BFD3F81C120A43C3F81C22D3F8A4
:1083E400002222F00102C3F80022002070BD012DFA
:1083F400DFD1D3F80C520E681543C3F80C528D88A4
:1084040003EBC00045EA0645C0F840528E688D89EA
:10841400CBE7D3F804021043D0E7D3F81402104397
:10842400D3E7436A43F480234362012070BD38B527
:1084340090F82030012B04461FD10268022380F8F3
:108444002030136823F001031360FFF703FF054690
:108454002368586810F0010001D1606238BDFFF74D
:10846400F9FE401B0A28F3D9636A43F400336362BC
:10847400052384F82030012038BD436A43F40023E7
:108484004362F8E7F0B590F820500668013D012DED
:10849400B46840D814F0E05F39D0C4F30164032C0D
:1084A4004FF0010505D1436A43F400034362012000
:1084B400F0BDA5401D608868CF6804F1180308BBAF
:1084C400086847EA40501B012401F0503319086939
:1084D400097DC3F88401012902BFD3F8841141F452
:1084E4008071C3F8841134445168C4F88C11126843
:1084F400C4F88821D3F8802142F00102C3F8802116
:108504000020F0BD4D68384340EAC500DBE7436A0C
:1085140043F40013CAE7436A43F48023C6E790F8A0
:108524002030013B012B17D8CA0741BF026893686A
:1085340043F0800393608B0741BF0268936843F460
:108544000043936011F004011FBF0268936843F471
:108554000003936000207047436A43F4802343621E
:1085640001207047F0B590F82040013C012C6BD8F5
:10857400066841B9F468A40707D1436A43F40013B9
:1085840043620120F0BD3469F5E70C013519D5F8D3
:10859400B07107F004079760002F4BD1D5F8B07184
:1085A4007F0D1760D5F8B071C7F34007D760D5F8D1
:1085B400B47107F00F071761D5F8B471D5F8B45149
:1085C4002644C7F307272D0C97615561D6F8B821C7
:1085D4001A7002682244D2F8B821120A5A7002684A
:1085E4002244D2F8B821120C9A7002682244D2F8BC
:1085F400B821120EDA7002682244D2F8BC211A7132
:1086040002682244D2F8BC21120A5A710268224438
:10861400D2F8BC21120C9A7102681444D4F8BC211B
:10862400120EDA71036851B9DA6842F02002DA6096
:108634000020F0BDD5F8B071FF085760B2E71A69A1
:1086440042F020021A61F3E7436A43F4802397E778
:1086540090F82030013B012B05D802685369194377
:10866400516100207047436A43F480234362012030
:10867400704790F82030013B012B06D802685369FB
:1086840023EA0101516100207047436A43F48023C7
:1086940043620120704770477047704770477047C6
:1086A4007047704770472DE9F84F03685E69D3F847
:1086B40004909F68D3F80CB0D3F810A0D3F81880B6
:1086C40016F00104054622D017F0010407D0012258
:1086D400B9079A6040F1A38001F0D8F80024FB05A3
:1086E40009D52B684FF48072B8059A6040F1A580D3
:1086F400284601F0C9F8FB0309D52B684FF48032F2
:10870400B8039A6040F1A780284601F0BBF833070C
:1087140007D51BF0100F1FBF2B68102244F4007400
:10872400DA60770708D51BF0080F05D02B680822FC
:10873400DA602846FFF7B2FFB00706D52B68DB687E
:10874400990702D0284601F0A3F8720607D51AF05B
:10875400100F1FBF2B68102244F480641A61B30603
:1087640008D51AF0080F05D02B6808221A6128468C
:10877400FFF796FFF70606D52B681B69980702D00A
:108784002846FFF78CFFB10308D519F0100F05D068
:108794002B6810225A602846FFF783FFF20308D59E
:1087A40019F0080F05D02B6808225A602846FFF7F5
:1087B40079FF33042AD519F0040F2A6824D0F70569
:1087C40004D518F0010F18BF44F00104B00504D516
:1087D40018F0020F18BF44F00204710504D518F014
:1087E400040F18BF44F0040433050DD518F07003CA
:1087F4000AD0302B4CD03CD8102B43D0202B44D063
:10880400936923F070039361042353602CB16B6A62
:108814001C436C62284600F0D3FFBDE8F88F7A074A
:1088240005D417F0080405D1FFF735FF57E74FF4D7
:10883400006454E74FF4805451E7790502D544F4B9
:10884400005458E73A0502D544F4804453E72846D7
:10885400FFF722FF4FE7790302D544F4004456E7BB
:108864003A0302D544F4803451E72846FFF715FF54
:108874004DE7502B0FD0602B10D0402BC0D144F0CB
:108884004004BDE744F00804BAE744F01004B7E735
:1088940044F02004B4E744F08004B1E744F4807465
:1088A400AEE790F82030013B012B8BBF436A0023D5
:1088B40043F4802343628ABF436218460120704711
:1088C400074AD36823F4E0631B041B0C43F0BF6323
:1088D400000243F4003300F4E0600343D3607047C4
:1088E40000ED00E0174B30B5DC68C4F30224C4F19A
:1088F4000703251D042B28BF0423062D4FF0010573
:1089040005FA03F303F1FF338CBF033C0024194041
:10891400A14005FA04F4013C2240002842EA010285
:108924004FEA0212AFBF00F1604000F00F00064BA7
:10893400D2B2A5BF00F56140D2B21A5480F8002328
:1089440030BD00BF00ED00E014ED00E0420901235A
:1089540000F01F0003FA00F0014B43F822007047B7
:1089640000E100E00138B0F1807F0AD2064B074AEB
:108974005860F02182F823100020072298601A60C2
:1089840070470120704700BF10E000E000ED00E0F8
:108994002DE9F74FD1F80080DFF874915A4A00238B
:1089A40038FA03F402D103B0BDE8F08F012404FACD
:1089B40003FA18EA0A0500F09C804C6824F0100BB6
:1089C400BBF1020F14D14FEAD30E00EB8E0E03F06D
:1089D400070CDEF820604FEA8C0C0F2707FA0CF71F
:1089E40026EA07070E6906FA0CF63E43CEF8206025
:1089F4004FEA430C0327066807FA0CF7FF4304F019
:108A0400030E3E400EFA0CFE0BF1FF3B4EEA060647
:108A1400BBF1010F066011D8866806EA070BCE6821
:108A240006FA0CFE4EEA0B068660466826EA0A0A37
:108A3400C4F300169E4046EA0A064660C6683740FC
:108A44008E6806FA0CF63743E600C76051D5D9F8AC
:108A5400186046F00106C9F81860D9F8186023F0C8
:108A6400030707F1804706F0010607F580370196F2
:108A740003F0030C019EBE684FEA8C0C4FF00F0EFE
:108A84000EFA0CFEB0F1904F26EA0E0E33D01F4EB4
:108A9400B04232D006F58066B04230D006F580662A
:108AA400B0422ED006F58066B04214BF05260426D7
:108AB40006FA0CF646EA0E06BE601668EF4314F496
:108AC400803F0CBF3E402E431660566814F4003FAE
:108AD4000CBF3E402E435660966814F4801F0CBFB2
:108AE4003E402E439660D668A40254BF3E402E43B7
:108AF400D660013354E70026DAE70126D8E70226D8
:108B0400D6E70326D4E700BF000401400004004870
:108B1400001002400AB18161704781627047000011
:108B2400064A1369012923F00403136101D130BFFC
:108B3400704740BF20BF20BF704700BF00ED00E07A
:108B44002DE9F347054618B9012002B0BDE8F087C6
:108B54000368DA0711D42B689B0700F185802B6822
:108B64001C0700F1F6802B68580700F13F81EA6981
:108B7400002A40F0D6810020E7E7BA4C636803F08E
:108B84000C03042B07D0636803F00C03082B16D1E5
:108B94006368DF0313D54FF4003393FAA3F221681B
:108BA40093FAA3F3B3FA83F303F01F03012202FA47
:108BB40003F30B42CFD06B68002BCCD1C4E76A68B7
:108BC400B2F5803F25D1236843F480332360E36A00
:108BD400A96823F00F030B43E36252B3FFF73AFB98
:108BE4004FF400368046012796FAA6F3226896FAD7
:108BF400A6F3B3FA83F303F01F0307FA03F3134254
:108C0400A9D1FFF727FBA0EB08006428ECD90320C7
:108C14009BE7236832B923F480332360236823F469
:108C24008023D3E7B2F5A02FF5D143F4802323604A
:108C3400C9E7FFF70FFB4FF400368046012796FA89
:108C4400A6F3226896FAA6F3B3FA83F303F01F039C
:108C540007FA03F313423FF47EAFFFF7FBFAA0EBEE
:108C640008006428EBD9D2E77E4C636813F00C0F3C
:108C740007D0636803F00C03082B22D16368DE037A
:108C84001FD4022393FAA3F2216893FAA3F3B3FA4D
:108C940083F303F01F03012202FA03F30B4203D010
:108CA4002B6993427FF450AF2168F82393FAA3F31E
:108CB400B3FA83F26B69934021F0F8021343236003
:108CC4004DE72A6901260AB396FAA6F3B3FA83F3A9
:108CD40003F1845303F584139B0002271E60FFF7FE
:108CE400B9FA804697FAA7F3226897FAA7F3B3FA7A
:108CF40083F303F01F0306FA03F31342D4D1FFF7FF
:108D0400A9FAA0EB08000228ECD980E796FAA6F3AA
:108D1400B3FA83F303F1845303F584139B0002270E
:108D24001A60FFF797FA804697FAA7F3226897FA32
:108D3400A7F3B3FA83F303F01F0306FA03F3134212
:108D44003FF40DAFFFF786FAA0EB08000228EBD939
:108D54005DE7AA69434E444901241AB394FAA4F383
:108D6400B3FA83F30B449B0002271C60FFF772FAEB
:108D7400804697FAA7F397FAA7F397FAA7F3726ACC
:108D840097FAA7F3B3FA83F303F01F0304FA03F388
:108D940013427FF4E8AEFFF75DFAA0EB0800022867
:108DA400E7D934E794FAA4F3B3FA83F30B449B00B2
:108DB40002271A60FFF74EFA804697FAA7F397FA4C
:108DC400A7F397FAA7F3726A97FAA7F3B3FA83F3B0
:108DD40003F01F0304FA03F313423FF4C4AEFFF796
:108DE40039FAA0EB08000228E7D910E71D4CE36923
:108DF400D90034D4E36943F08053E361E36903F0B9
:108E040080530193019B0126184F3B68DA052FD547
:108E1400EB68012B3DD1236A43F001032362FFF782
:108E240019FA02278246B9464FF0010897FAA7F3C8
:108E340097FAA7F3002B6CD0226A99FAA9F3B3FA34
:108E440083F303F01F0308FA03F3134258D0002EF0
:108E54003FF48DAEE36923F08053E36187E6002697
:108E6400D2E700BF00100240208190100070004043
:108E74003B6843F480733B60FFF7ECF980463B6842
:108E8400DB05C5D4FFF7E6F9A0EB08006428F6D9A2
:108E9400BDE63BBB236A23F001032362236A23F06C
:108EA40004032362FFF7D6F902278246B9464FF03E
:108EB400010897FAA7F397FAA7F373B3226A99FA0A
:108EC400A9F3B3FA83F303F01F0308FA03F313427D
:108ED400BDD0FFF7BFF941F28833A0EB0A009842F6
:108EE400E7D994E6052B236A03D143F004032362F4
:108EF40091E723F001032362236A23F004038DE73F
:108F0400FFF7A8F941F28833A0EB0A0098428DD903
:108F14007DE697FAA7F3626A8FE797FAA7F3626A86
:108F2400CDE7414C636803F00C03082B3FF40CAE0F
:108F3400022A4FF0807352D193FAA3F3B3FA83F366
:108F440003F1845303F584139B0000221A60FFF796
:108F540081F94FF000778046012697FAA7F322683B
:108F640097FAA7F3B3FA83F303F01F0306FA03F3A4
:108F740013422DD162686B6A296A22F474120B437E
:108F8400134363604FF0807393FAA3F3B3FA83F34C
:108F940003F1845303F584139B004FF000751E60A6
:108FA400FFF758F90126074695FAA5F3226895FAC2
:108FB400A5F3B3FA83F303F01F0306FA03F3134292
:108FC4007FF4D9ADFFF746F9C01B0228ECD91EE6A1
:108FD400FFF740F9A0EB08000228BED917E693FA80
:108FE400A3F3B3FA83F303F1845303F584139B00CF
:108FF40000221A60FFF72EF94FF00075074601268C
:1090040095FAA5F3226895FAA5F3B3FA83F303F06E
:109014001F0306FA03F313423FF4ADADFFF71AF949
:10902400C01B0228ECD9F2E50010024010B5134C25
:10903400616801F00C03082B1ED14FF4701393FAEE
:10904400A3F301F47012B3FA83F322FA03F30C4A84
:10905400D05CE36A0F2292FAA2F2B2FA82F203F02F
:109064000F03D340074AD25CCB034ABF064B074BDE
:10907400B3FBF2F3584310BD034810BD0010024087
:10908400809C0008909C000800127A0000093D00B2
:109094002DE9F0410D46044610B90120BDE8F081E8
:1090A4004C4A136803F007038B422ED322689107BE
:1090B40036D4D2073CD4474A136803F007039D42D1
:1090C40075D32268444D12F0040F7CD1130706D5E2
:1090D4006B68226923F4605343EAC2036B60FFF7B1
:1090E400A5FF6B68F02292FAA2F2B2FA82F203F0C0
:1090F400F003D340394AD35CD840394B1860002080
:10910400FFF766F80020BDE8F081136823F0070339
:109114000B431360136803F007039942BDD1C5E7FD
:109124002D49A0684B6823F0F00303434B60C0E76C
:109134006268294E012A27D14FF4003393FAA3F130
:10914400316893FAA3F3B3FA83F303F01F0302FA2B
:1091540003F30B42A1D0736823F003031A43726034
:10916400FFF778F841F2883807467368626803F0BD
:109174000C03B3EB820F9ED0FFF76CF8C01B404585
:10918400F3D90320BDE8F081022A0CBF4FF000732D
:10919400022393FAA3F1306893FAA3F3B3FA83F3A7
:1091A40003F01F03012101FA03F30342D2E713681A
:1091B40023F007032B431360136803F007039D4256
:1091C4007FF46BAF7DE76B68E16823F4E0630B43E6
:1091D4006B607BE70020024000100240A09C000866
:1091E4000C0000200368DA6842F00102DA601A68B1
:1091F40042F001021A6000207047704770477047C0
:10920400704703681A69910710B504460ED5DA68E9
:1092140092070BD56FF002021A619B6901229B072A
:10922400027777D0FFF7EAFF0023237723681A69D0
:10923400500710D5DA6851070DD56FF004021A6192
:109244009B69022213F4407F2277204668D0FFF7FF
:10925400D5FF0023237723681A6912070FD5DA682C
:1092640010070CD56FF008021A61DB690422990714
:10927400227720465AD0FFF7C1FF002323772368C3
:109284001A69D20610D5DA68D0060DD56FF010022F
:109294001A61DB69082213F4407F227720464BD001
:1092A400FFF7ACFF0023237723681A69D10708D599
:1092B400DA68D20705D56FF001021A61204600F082
:1092C400F3F923681A69100608D5DA68110605D57A
:1092D4006FF080021A61204600F0B5F823681A691D
:1092E400520608D5DA68500605D56FF040021A61B7
:1092F4002046FFF785FF23681A69910622D5DA68AC
:1093040092061FD56FF0200220461A61BDE8104076
:1093140000F098B8FFF771FF2046FFF770FF83E76E
:10932400FFF76BFF2046FFF76AFF92E7FFF765FF41
:109334002046FFF764FFA0E7FFF75FFF2046FFF733
:109344005EFFAFE710BD0000B0F1804F03680ED0A0
:109354002C4A90420BD002F58062904207D002F56D
:109364008062904203D002F5A832904212D14A683A
:1093740023F07003B0F1804F43EA020325D0214A61
:10938400904222D002F5806290421ED002F58062A3
:1093940090421AD01C4A904217D002F58062904243
:1093A40013D002F5806290420FD002F590329042C1
:1093B4000BD002F58062904207D002F580629042A1
:1093C40003D002F5A052904203D1CA6823F440733B
:1093D40013434A6923F08003134303608B68C36219
:1093E4000B688362094B984207D003F58063984267
:1093F40003D003F58063984201D10B690363012311
:1094040043617047000400400018004000400140E0
:1094140010B50446A0B190F83D3003F0FF021BB92B
:1094240080F83C2000F05CFB022384F83D30206887
:10943400211DFFF789FF012384F83D30002010BD72
:10944400012010BD70477047F0B589B00646202250
:109454000021684600F0FEFB00276D460FCDF4198D
:109464000FC495E80F002037B7F5C86F84E80F00E4
:10947400F3D1002386F8403686F8413686F8423622
:1094840086F8643609B0F0BD70B5002490F8423611
:1094940090F841562246E6B2B54200D90AB11046C8
:1094A40070BD00EB43124E6852680133DBB2322BBD
:1094B400A2EB060628BF0023724204F101047241A4
:1094C400E9E7F0B590F841E6BEF1310F07461FD841
:1094D40090F840660C4600EB46150FCC0FC594E897
:1094E4000F0085E80F00BEF1000F01D187F8426636
:1094F4000136F6B2312E88BF00230EF1010E94BF5F
:1095040087F8406687F8403687F841E60120F0BDC9
:109514000020F0BD38B50446FFF7B6FF20B9204659
:10952400BDE83840FFF7CDBF002038BD2DE9F0433A
:1095340089B08146884620220021684600F08AFBD3
:1095440020220021484600F085FB98F841E6BEF150
:10955400000F1FD098F8427608EB471634460FCC1C
:109564004D460FC594E80F0085E80F006D460FCDFA
:109574000FC695E80F000137FFB2312F84E80F00C2
:109584000EF1FF3E8ABF002388F8427688F84236FF
:1095940088F841E6484609B0BDE8F083F0B590F894
:1095A40064368BB006460F46EBB990F84136D3B11A
:1095B40001466C466846FFF7B9FF0FCC06F24465D6
:1095C4000FC594E80F0085E80F00012186F86416A2
:1095D4003846FFF73DF809AB06F25C6206F24461D7
:1095E4003846FEF74FFF0BB0F0BD704770470000E0
:1095F40000B5144A144813780133DBB2FF2B89B049
:1096040008BF0023137004230293104B0193082115
:109614000023039304918DF818308DF819308DF8D8
:109624001A308DF81B308DF81C308DF81D308DF8F4
:109634001E30694613788DF81F30FFF76BFF09B0B1
:109644005DF804FB2C0000203C00002010FFFF18F4
:1096540010B590B02822002106A800F0FBFA1422CD
:10966400002101A800F0F6FA01230A931023022432
:109674000B9306A84FF4601306940D940F93FFF711
:109684005FFA00B1FEE70F23019303904FF4806368
:109694000590214601A802940493FFF7F9FC00B158
:1096A400FEE710B010BD00003E4B834270B577D189
:1096B4003D4B3E4C1D686A1C1A60238801339BB2E3
:1096C400B3F57A7F28BF0023238020880A21B0FBCA
:1096D400F1F301FB13039BB2002B61D1FA23B2FB1C
:1096E400F3F503FB1525E5B9314E3278022A39D05A
:1096F400032A40D0012A14D14FF400414FF0904086
:10970400FFF708FA2A464FF480612A48FFF702FA65
:109714002A464FF400612748FFF7FCF933780133F8
:10972400337023880BB9FFF760FF21886422B1FBF3
:10973400F2F302FB13139BB20BB9FFF757FF218817
:109744001422B1FBF2F302FB13139BB20BB9FFF724
:109754004FFF194890F8413613B31849BDE87040DB
:10976400FFF71CBF2A464FF400414FF09040FFF72B
:10977400D1F90122C7E72A464FF400414FF0904047
:10978400FFF7C8F92A464FF480610A48FFF7C2F987
:1097940001224FF400610748FFF7BCF90123BFE73A
:1097A40070BD00BFA406002030000020340000205B
:1097B40008000020000800483C000020E4060020C7
:1097C400436A37B51D05044603D4456A15F480552C
:1097D40004D001212046FEF7A2FE0125636A980405
:1097E40002D4636A590404D502212046FEF797FE89
:1097F4000125636A1A0402D4636ADB0304D50421D5
:109804002046FEF78CFE01252046FFF74AF875B185
:1098140029462046FEF72DFF29462046FEF718FF6D
:10982400044A01ABA2F118012046FEF72BFE03B057
:1098340030BD00BF98060020F0B5114E96F84136B1
:109844008BB00746CBB1314668466C46FFF76EFED7
:109854000FCC06F244650FC594E80F0085E80F00AD
:10986400D6F848363BB109AB06F25C6206F24461B5
:109874003846FEF707FE0BB0F0BD86F86436FAE70B
:109884003C000020FFF7D8BFFFF7D6BFFFF7D4BFD7
:1098940000B58BB001AB03AA0021FEF763FE0BB049
:1098A4005DF804FB00B5DFF838C08BB04CF2F870FB
:1098B4003C214FF0FC0E002301228DE80350694641
:1098C400064806930792049308920593FEF743FD16
:1098D40000B1FEE70BB05DF804FB00BFE406002016
:1098E400FCFF070000B58BB0FEF796FCFFF7B0FE57
:1098F400142200210DEB020000F0ACF9444B454C5E
:109904005A6942F400325A615A6902F400320192EF
:10991400019A5A6942F400225A615A6902F40022F7
:109924000292029A5A6942F480125A615A6902F404
:1099340080120392039A5A6942F480225A615B6945
:1099440003F48023049300224FF400414FF090402D
:10995400049BFFF7DFF800224FF440612E480025F6
:10996400FFF7D8F801264FF4004305A94FF09040C3
:109974000593069607950895FFF70AF84FF4406398
:109984002548059305A9069607950895FFF700F85D
:10999400224AA560042384E80C004FF400232361C9
:1099A40020464FF4A003E560636125766676A576CC
:1099B400E57625776577FEF753FC00B1FEE7184D91
:1099C400184BA86085E848004FF4FA43EB604FF465
:1099D40080732B61686180232846AB61FFF718FD13
:1099E40000B1FEE7FFF75EFF21460F48FFF72CFDAD
:1099F4002846FFF7F7FB2046FEF719FD0221204613
:109A0400FEF726FE01210020FFF78AF8FAE700BFDF
:109A140000100240E40600200008004800640040F2
:109A2400A4060020004801403C0000200A4B9A692B
:109A340042F001029A619A6982B002F00102009236
:109A4400009ADA6942F08052DA61DB6903F08053EC
:109A54000193019B02B070470010024010B5044608
:109A640088B01422002103A800F0F4F822681A4BED
:109A74009A422ED103F5D63303A9DA69174842F086
:109A84000072DA61DA6902F000720192019A5A698D
:109A940042F480125A615B6903F480130293029BBF
:109AA4000323022203930693072307930492FEF7EA
:109AB4006FFF002211461320FEF714FF1320FEF758
:109AC40045FF002214201146FEF70CFF1420FEF778
:109AD4003DFF08B010BD00BF00640040000C00480A
:109AE40007B50D4B02689A4212D103F548431A2078
:109AF4009A6942F480229A619B69002203F48023CC
:109B040001931146019BFEF7EDFE1A20FEF71EFF9E
:109B140003B05DF804FB00BF004801407047FEE756
:109B2400FEE7FEE7FEE7704770477047FEF786BB27
:109B34000148FEF7B8BD00BFE4060020FFF7F8BFF8
:109B44000148FFF75EBB00BFA40600201549D1F809
:109B5400883043F47003C1F88830134B1A6842F01C
:109B640001021A605868114A02405A601A6822F0C9
:109B7400847222F480321A601A6822F480221A60F5
:109B84005A6822F4FE025A60DA6A22F00F02DA629C
:109B9400186B074A02401A6300229A60054B8B60D7
:109BA400704700BF00ED00E0001002400CC07FF8D9
:109BB400CCFC00FF00800008DFF834D0002103E073
:109BC4000C4B5B58435004310B480C4B42189A42DF
:109BD400F6D30B4A02E0002342F8043B094B9A42B5
:109BE400F9D3FFF7B3FF00F011F8FFF77BFEFEE7B0
:109BF40000800020B89C0008000000201000002015
:109C0400100000200C070020FEE7000070B50D4E88
:109C14000D4CA41BA4100025A54209D10B4E0C4CDD
:109C240000F020F8A41BA4100025A54205D170BDA6
:109C340056F8253098470135EEE756F82530984711
:109C44000135F2E7B09C0008B09C0008B09C000805
:109C5400B49C000802440346934200D1704703F8C1
:109C6400011BF9E7F8B500BFF8BC08BC9E46704775
:0C9C7400F8B500BFF8BC08BC9E46704765
:109C800002030405060708090A0B0C0D0E0F10103D
:109C90000102030405060708090A0B0C0D0E0F103C
:109CA000000000000000000001020304060708098C
:049CB000B98100086E
:049CB400958100088E
:109CB80001000000100000000100000000127A00FE
:0400000508009BBD97
:00000001FF
